{
  "address": "0x5FbDB2315678afecb367f032d93F642f64180aa3",
  "abi": [
    {
      "inputs": [
        {
          "internalType": "address[]",
          "name": "founders",
          "type": "address[]"
        },
        {
          "internalType": "address",
          "name": "democracyV1",
          "type": "address"
        }
      ],
      "stateMutability": "nonpayable",
      "type": "constructor"
    },
    {
      "anonymous": false,
      "inputs": [
        {
          "indexed": true,
          "internalType": "address",
          "name": "owner",
          "type": "address"
        },
        {
          "indexed": true,
          "internalType": "address",
          "name": "approved",
          "type": "address"
        },
        {
          "indexed": true,
          "internalType": "uint256",
          "name": "tokenId",
          "type": "uint256"
        }
      ],
      "name": "Approval",
      "type": "event"
    },
    {
      "anonymous": false,
      "inputs": [
        {
          "indexed": true,
          "internalType": "address",
          "name": "owner",
          "type": "address"
        },
        {
          "indexed": true,
          "internalType": "address",
          "name": "operator",
          "type": "address"
        },
        {
          "indexed": false,
          "internalType": "bool",
          "name": "approved",
          "type": "bool"
        }
      ],
      "name": "ApprovalForAll",
      "type": "event"
    },
    {
      "anonymous": false,
      "inputs": [
        {
          "indexed": true,
          "internalType": "address",
          "name": "citizen",
          "type": "address"
        },
        {
          "indexed": false,
          "internalType": "uint256",
          "name": "id",
          "type": "uint256"
        }
      ],
      "name": "Issued",
      "type": "event"
    },
    {
      "anonymous": false,
      "inputs": [
        {
          "indexed": true,
          "internalType": "address",
          "name": "citizen",
          "type": "address"
        },
        {
          "indexed": false,
          "internalType": "uint256",
          "name": "id",
          "type": "uint256"
        }
      ],
      "name": "Revoked",
      "type": "event"
    },
    {
      "anonymous": false,
      "inputs": [
        {
          "indexed": true,
          "internalType": "bytes32",
          "name": "role",
          "type": "bytes32"
        },
        {
          "indexed": true,
          "internalType": "bytes32",
          "name": "previousAdminRole",
          "type": "bytes32"
        },
        {
          "indexed": true,
          "internalType": "bytes32",
          "name": "newAdminRole",
          "type": "bytes32"
        }
      ],
      "name": "RoleAdminChanged",
      "type": "event"
    },
    {
      "anonymous": false,
      "inputs": [
        {
          "indexed": true,
          "internalType": "bytes32",
          "name": "role",
          "type": "bytes32"
        },
        {
          "indexed": true,
          "internalType": "address",
          "name": "account",
          "type": "address"
        },
        {
          "indexed": true,
          "internalType": "address",
          "name": "sender",
          "type": "address"
        }
      ],
      "name": "RoleGranted",
      "type": "event"
    },
    {
      "anonymous": false,
      "inputs": [
        {
          "indexed": true,
          "internalType": "bytes32",
          "name": "role",
          "type": "bytes32"
        },
        {
          "indexed": true,
          "internalType": "address",
          "name": "account",
          "type": "address"
        },
        {
          "indexed": true,
          "internalType": "address",
          "name": "sender",
          "type": "address"
        }
      ],
      "name": "RoleRevoked",
      "type": "event"
    },
    {
      "anonymous": false,
      "inputs": [
        {
          "indexed": true,
          "internalType": "address",
          "name": "from",
          "type": "address"
        },
        {
          "indexed": true,
          "internalType": "address",
          "name": "to",
          "type": "address"
        },
        {
          "indexed": true,
          "internalType": "uint256",
          "name": "tokenId",
          "type": "uint256"
        }
      ],
      "name": "Transfer",
      "type": "event"
    },
    {
      "inputs": [],
      "name": "DEFAULT_ADMIN_ROLE",
      "outputs": [
        {
          "internalType": "bytes32",
          "name": "",
          "type": "bytes32"
        }
      ],
      "stateMutability": "view",
      "type": "function"
    },
    {
      "inputs": [],
      "name": "MY_ROLE",
      "outputs": [
        {
          "internalType": "bytes32",
          "name": "",
          "type": "bytes32"
        }
      ],
      "stateMutability": "view",
      "type": "function"
    },
    {
      "inputs": [
        {
          "internalType": "address",
          "name": "to",
          "type": "address"
        },
        {
          "internalType": "uint256",
          "name": "tokenId",
          "type": "uint256"
        }
      ],
      "name": "approve",
      "outputs": [],
      "stateMutability": "nonpayable",
      "type": "function"
    },
    {
      "inputs": [
        {
          "internalType": "address",
          "name": "owner",
          "type": "address"
        }
      ],
      "name": "balanceOf",
      "outputs": [
        {
          "internalType": "uint256",
          "name": "",
          "type": "uint256"
        }
      ],
      "stateMutability": "view",
      "type": "function"
    },
    {
      "inputs": [
        {
          "internalType": "uint256",
          "name": "tokenId",
          "type": "uint256"
        }
      ],
      "name": "getApproved",
      "outputs": [
        {
          "internalType": "address",
          "name": "",
          "type": "address"
        }
      ],
      "stateMutability": "view",
      "type": "function"
    },
    {
      "inputs": [
        {
          "internalType": "address",
          "name": "citizen",
          "type": "address"
        }
      ],
      "name": "getDID",
      "outputs": [
        {
          "internalType": "string",
          "name": "",
          "type": "string"
        }
      ],
      "stateMutability": "nonpayable",
      "type": "function"
    },
    {
      "inputs": [
        {
          "internalType": "bytes32",
          "name": "role",
          "type": "bytes32"
        }
      ],
      "name": "getRoleAdmin",
      "outputs": [
        {
          "internalType": "bytes32",
          "name": "",
          "type": "bytes32"
        }
      ],
      "stateMutability": "view",
      "type": "function"
    },
    {
      "inputs": [
        {
          "internalType": "bytes32",
          "name": "role",
          "type": "bytes32"
        },
        {
          "internalType": "address",
          "name": "account",
          "type": "address"
        }
      ],
      "name": "grantRole",
      "outputs": [],
      "stateMutability": "nonpayable",
      "type": "function"
    },
    {
      "inputs": [
        {
          "internalType": "bytes32",
          "name": "role",
          "type": "bytes32"
        },
        {
          "internalType": "address",
          "name": "account",
          "type": "address"
        }
      ],
      "name": "hasRole",
      "outputs": [
        {
          "internalType": "bool",
          "name": "",
          "type": "bool"
        }
      ],
      "stateMutability": "view",
      "type": "function"
    },
    {
      "inputs": [
        {
          "internalType": "address",
          "name": "owner",
          "type": "address"
        },
        {
          "internalType": "address",
          "name": "operator",
          "type": "address"
        }
      ],
      "name": "isApprovedForAll",
      "outputs": [
        {
          "internalType": "bool",
          "name": "",
          "type": "bool"
        }
      ],
      "stateMutability": "view",
      "type": "function"
    },
    {
      "inputs": [
        {
          "internalType": "address",
          "name": "citizen",
          "type": "address"
        }
      ],
      "name": "isCitizen",
      "outputs": [
        {
          "internalType": "bool",
          "name": "",
          "type": "bool"
        }
      ],
      "stateMutability": "nonpayable",
      "type": "function"
    },
    {
      "inputs": [
        {
          "internalType": "address",
          "name": "to",
          "type": "address"
        },
        {
          "internalType": "string",
          "name": "name",
          "type": "string"
        }
      ],
      "name": "issue",
      "outputs": [],
      "stateMutability": "nonpayable",
      "type": "function"
    },
    {
      "inputs": [],
      "name": "name",
      "outputs": [
        {
          "internalType": "string",
          "name": "",
          "type": "string"
        }
      ],
      "stateMutability": "view",
      "type": "function"
    },
    {
      "inputs": [
        {
          "internalType": "uint256",
          "name": "tokenId",
          "type": "uint256"
        }
      ],
      "name": "ownerOf",
      "outputs": [
        {
          "internalType": "address",
          "name": "",
          "type": "address"
        }
      ],
      "stateMutability": "view",
      "type": "function"
    },
    {
      "inputs": [
        {
          "internalType": "bytes32",
          "name": "role",
          "type": "bytes32"
        },
        {
          "internalType": "address",
          "name": "account",
          "type": "address"
        }
      ],
      "name": "renounceRole",
      "outputs": [],
      "stateMutability": "nonpayable",
      "type": "function"
    },
    {
      "inputs": [
        {
          "internalType": "uint256",
          "name": "citizenId",
          "type": "uint256"
        }
      ],
      "name": "revoke",
      "outputs": [],
      "stateMutability": "nonpayable",
      "type": "function"
    },
    {
      "inputs": [
        {
          "internalType": "bytes32",
          "name": "role",
          "type": "bytes32"
        },
        {
          "internalType": "address",
          "name": "account",
          "type": "address"
        }
      ],
      "name": "revokeRole",
      "outputs": [],
      "stateMutability": "nonpayable",
      "type": "function"
    },
    {
      "inputs": [
        {
          "internalType": "address",
          "name": "from",
          "type": "address"
        },
        {
          "internalType": "address",
          "name": "to",
          "type": "address"
        },
        {
          "internalType": "uint256",
          "name": "tokenId",
          "type": "uint256"
        }
      ],
      "name": "safeTransferFrom",
      "outputs": [],
      "stateMutability": "nonpayable",
      "type": "function"
    },
    {
      "inputs": [
        {
          "internalType": "address",
          "name": "from",
          "type": "address"
        },
        {
          "internalType": "address",
          "name": "to",
          "type": "address"
        },
        {
          "internalType": "uint256",
          "name": "tokenId",
          "type": "uint256"
        },
        {
          "internalType": "bytes",
          "name": "_data",
          "type": "bytes"
        }
      ],
      "name": "safeTransferFrom",
      "outputs": [],
      "stateMutability": "nonpayable",
      "type": "function"
    },
    {
      "inputs": [
        {
          "internalType": "address",
          "name": "operator",
          "type": "address"
        },
        {
          "internalType": "bool",
          "name": "approved",
          "type": "bool"
        }
      ],
      "name": "setApprovalForAll",
      "outputs": [],
      "stateMutability": "nonpayable",
      "type": "function"
    },
    {
      "inputs": [
        {
          "internalType": "string",
          "name": "did",
          "type": "string"
        }
      ],
      "name": "setDID",
      "outputs": [
        {
          "internalType": "string",
          "name": "",
          "type": "string"
        }
      ],
      "stateMutability": "nonpayable",
      "type": "function"
    },
    {
      "inputs": [
        {
          "internalType": "bytes4",
          "name": "interfaceId",
          "type": "bytes4"
        }
      ],
      "name": "supportsInterface",
      "outputs": [
        {
          "internalType": "bool",
          "name": "",
          "type": "bool"
        }
      ],
      "stateMutability": "view",
      "type": "function"
    },
    {
      "inputs": [],
      "name": "symbol",
      "outputs": [
        {
          "internalType": "string",
          "name": "",
          "type": "string"
        }
      ],
      "stateMutability": "view",
      "type": "function"
    },
    {
      "inputs": [
        {
          "internalType": "uint256",
          "name": "tokenId",
          "type": "uint256"
        }
      ],
      "name": "tokenURI",
      "outputs": [
        {
          "internalType": "string",
          "name": "",
          "type": "string"
        }
      ],
      "stateMutability": "view",
      "type": "function"
    },
    {
      "inputs": [],
      "name": "totalCitizens",
      "outputs": [
        {
          "internalType": "uint256",
          "name": "",
          "type": "uint256"
        }
      ],
      "stateMutability": "view",
      "type": "function"
    },
    {
      "inputs": [
        {
          "internalType": "address",
          "name": "from",
          "type": "address"
        },
        {
          "internalType": "address",
          "name": "to",
          "type": "address"
        },
        {
          "internalType": "uint256",
          "name": "tokenId",
          "type": "uint256"
        }
      ],
      "name": "transferFrom",
      "outputs": [],
      "stateMutability": "nonpayable",
      "type": "function"
    }
  ],
  "transactionHash": "0xdacbeaeb5ec6bf1e01b4ddf20b54d60387aee4b2aac15870f18f3b98150d7f52",
  "args": [
    [
      "0x0fB374787B0bB7e62bD82A1B020b12fa239aB788"
    ],
    "0x0fB374787B0bB7e62bD82A1B020b12fa239aB788"
  ],
  "numDeployments": 1,
  "solcInputHash": "b0a337bfa33cc62cbc58050d8b0ea22f",
  "bytecode": "0x60806040523480156200001157600080fd5b50604051620028ce380380620028ce8339810160408190526200003491620003e5565b6040518060400160405280600781526020016621b4ba34bd32b760c91b8152506040518060400160405280600381526020016221a4ad60e91b815250816000908162000081919062000559565b50600162000090828262000559565b50505060005b8251811015620001a7576007805460009182620000b3836200063b565b919050559050620000e7848381518110620000d257620000d262000657565b602002602001015182620001b060201b60201c565b6040518060400160405280600481526020016330b737b760e11b815250600a6000838152602001908152602001600020908162000125919062000559565b50620001576000801b85848151811062000143576200014362000657565b6020026020010151620002fd60201b60201c565b620001917f3c919ce539f5b48cdd3b70d26319a61596a5ff44fb77a82b76e90c9924bbe12f85848151811062000143576200014362000657565b50806200019e816200063b565b91505062000096565b50505062000688565b6001600160a01b0382166200020c5760405162461bcd60e51b815260206004820181905260248201527f4552433732313a206d696e7420746f20746865207a65726f206164647265737360448201526064015b60405180910390fd5b6000818152600260205260409020546001600160a01b031615620002735760405162461bcd60e51b815260206004820152601c60248201527f4552433732313a20746f6b656e20616c7265616479206d696e74656400000000604482015260640162000203565b6001600160a01b03821660009081526003602052604081208054600192906200029e9084906200066d565b909155505060008181526002602052604080822080546001600160a01b0319166001600160a01b03861690811790915590518392907fddf252ad1be2c89b69c2b068fc378daa952ba7f163c4a11628f55a4df523b3ef908290a45b5050565b620002f982826200030e565b505050565b60008281526006602090815260408083206001600160a01b038516845290915290205460ff16620002f95760008281526006602090815260408083206001600160a01b03851684529091529020805460ff191660011790556200036e3390565b6001600160a01b0316816001600160a01b0316837f2f8788117e7eff1d82e926ec794901d17c78024a50270940304540a733656f0d60405160405180910390a45050565b634e487b7160e01b600052604160045260246000fd5b80516001600160a01b0381168114620003e057600080fd5b919050565b60008060408385031215620003f957600080fd5b82516001600160401b03808211156200041157600080fd5b818501915085601f8301126200042657600080fd5b81516020828211156200043d576200043d620003b2565b8160051b604051601f19603f83011681018181108682111715620004655762000465620003b2565b6040529283528183019350848101820192898411156200048457600080fd5b948201945b83861015620004ad576200049d86620003c8565b8552948201949382019362000489565b9650620004be9050878201620003c8565b9450505050509250929050565b600181811c90821680620004e057607f821691505b6020821081036200050157634e487b7160e01b600052602260045260246000fd5b50919050565b601f8211156200030957600081815260208120601f850160051c81016020861015620005305750805b601f850160051c820191505b8181101562000551578281556001016200053c565b505050505050565b81516001600160401b03811115620005755762000575620003b2565b6200058d81620005868454620004cb565b8462000507565b602080601f831160018114620005c55760008415620005ac5750858301515b600019600386901b1c1916600185901b17855562000551565b600085815260208120601f198616915b82811015620005f657888601518255948401946001909101908401620005d5565b5085821015620006155787850151600019600388901b60f8161c191681555b5050505050600190811b01905550565b634e487b7160e01b600052601160045260246000fd5b60006001820162000650576200065062000625565b5060010190565b634e487b7160e01b600052603260045260246000fd5b6000821982111562000683576200068362000625565b500190565b61223680620006986000396000f3fe608060405234801561001057600080fd5b506004361061018e5760003560e01c80636352211e116100de578063b88d4fde11610097578063d547741f11610071578063d547741f14610378578063e985e9c51461038b578063f3caad03146103c7578063f64e30b0146103f357600080fd5b8063b88d4fde14610349578063bd7b09e41461035c578063c87b56dd1461036557600080fd5b80636352211e146102ed57806370a082311461030057806391d148541461031357806395d89b4114610326578063a217fddf1461032e578063a22cb4651461033657600080fd5b806320c5429b1161014b578063274a827b11610125578063274a827b146102a15780632f2ff15d146102b457806336568abe146102c757806342842e0e146102da57600080fd5b806320c5429b1461025857806323b872dd1461026b578063248a9ca31461027e57600080fd5b806301ffc9a71461019357806304b444d9146101bb57806306fdde03146101d0578063081812fc146101e5578063095ea7b31461021057806316f5f71b14610223575b600080fd5b6101a66101a136600461196e565b610406565b60405190151581526020015b60405180910390f35b6101ce6101c93660046119f0565b610417565b005b6101d86104ba565b6040516101b29190611a9b565b6101f86101f3366004611aae565b61054c565b6040516001600160a01b0390911681526020016101b2565b6101ce61021e366004611ac7565b6105e1565b61024a7f3c919ce539f5b48cdd3b70d26319a61596a5ff44fb77a82b76e90c9924bbe12f81565b6040519081526020016101b2565b6101ce610266366004611aae565b6106f6565b6101ce610279366004611af1565b610704565b61024a61028c366004611aae565b60009081526006602052604090206001015490565b6101d86102af366004611b2d565b61074c565b6101ce6102c2366004611b6f565b6107fa565b6101ce6102d5366004611b6f565b61081f565b6101ce6102e8366004611af1565b61089d565b6101f86102fb366004611aae565b6108b8565b61024a61030e366004611b9b565b61092f565b6101a6610321366004611b6f565b6109b6565b6101d86109e1565b61024a600081565b6101ce610344366004611bb6565b6109f0565b6101ce610357366004611c08565b6109fb565b61024a60075481565b6101d8610373366004611aae565b610a77565b6101ce610386366004611b6f565b610a82565b6101a6610399366004611ce4565b6001600160a01b03918216600090815260056020908152604080832093909416825291909152205460ff1690565b6101a66103d5366004611b9b565b6001600160a01b031660009081526008602052604090205460ff1690565b6101d8610401366004611b9b565b610aa7565b600061041182610b53565b92915050565b6001600160a01b03831660009081526008602052604090205460ff16156104785760405162461bcd60e51b815260206004820152601060248201526f22bc34b9ba34b7339021b4ba34bd32b760811b60448201526064015b60405180910390fd5b600780546000918261048983611d24565b909155506000818152600a602052604090209091506104a9838583611dc5565b506104b48482610b78565b50505050565b6060600080546104c990611d3d565b80601f01602080910402602001604051908101604052809291908181526020018280546104f590611d3d565b80156105425780601f1061051757610100808354040283529160200191610542565b820191906000526020600020905b81548152906001019060200180831161052557829003601f168201915b5050505050905090565b6000818152600260205260408120546001600160a01b03166105c55760405162461bcd60e51b815260206004820152602c60248201527f4552433732313a20617070726f76656420717565727920666f72206e6f6e657860448201526b34b9ba32b73a103a37b5b2b760a11b606482015260840161046f565b506000908152600460205260409020546001600160a01b031690565b60006105ec826108b8565b9050806001600160a01b0316836001600160a01b0316036106595760405162461bcd60e51b815260206004820152602160248201527f4552433732313a20617070726f76616c20746f2063757272656e74206f776e656044820152603960f91b606482015260840161046f565b336001600160a01b038216148061067557506106758133610399565b6106e75760405162461bcd60e51b815260206004820152603860248201527f4552433732313a20617070726f76652063616c6c6572206973206e6f74206f7760448201527f6e6572206e6f7220617070726f76656420666f7220616c6c0000000000000000606482015260840161046f565b6106f18383610cba565b505050565b610701600754610d28565b50565b60405162461bcd60e51b815260206004820152601d60248201527f436974697a656e416c7068613a204b65657020796f757220536f756c20000000604482015260640161046f565b336000908152600960205260409020606090610769838583611dc5565b805461077490611d3d565b80601f01602080910402602001604051908101604052809291908181526020018280546107a090611d3d565b80156107ed5780601f106107c2576101008083540402835291602001916107ed565b820191906000526020600020905b8154815290600101906020018083116107d057829003601f168201915b5050505050905092915050565b60008281526006602052604090206001015461081581610dc3565b6106f18383610dcd565b6001600160a01b038116331461088f5760405162461bcd60e51b815260206004820152602f60248201527f416363657373436f6e74726f6c3a2063616e206f6e6c792072656e6f756e636560448201526e103937b632b9903337b91039b2b63360891b606482015260840161046f565b6108998282610e53565b5050565b6106f1838383604051806020016040528060008152506109fb565b6000818152600260205260408120546001600160a01b0316806104115760405162461bcd60e51b815260206004820152602960248201527f4552433732313a206f776e657220717565727920666f72206e6f6e657869737460448201526832b73a103a37b5b2b760b91b606482015260840161046f565b60006001600160a01b03821661099a5760405162461bcd60e51b815260206004820152602a60248201527f4552433732313a2062616c616e636520717565727920666f7220746865207a65604482015269726f206164647265737360b01b606482015260840161046f565b506001600160a01b031660009081526003602052604090205490565b60009182526006602090815260408084206001600160a01b0393909316845291905290205460ff1690565b6060600180546104c990611d3d565b610899338383610eba565b610a053383610f88565b610a6b5760405162461bcd60e51b815260206004820152603160248201527f4552433732313a207472616e736665722063616c6c6572206973206e6f74206f6044820152701ddb995c881b9bdc88185c1c1c9bdd9959607a1b606482015260840161046f565b6104b48484848461107f565b6060610411826110b2565b600082815260066020526040902060010154610a9d81610dc3565b6106f18383610e53565b6001600160a01b0381166000908152600960205260409020805460609190610ace90611d3d565b80601f0160208091040260200160405190810160405280929190818152602001828054610afa90611d3d565b8015610b475780601f10610b1c57610100808354040283529160200191610b47565b820191906000526020600020905b815481529060010190602001808311610b2a57829003601f168201915b50505050509050919050565b60006001600160e01b03198216637965db0b60e01b14806104115750610411826111fe565b6001600160a01b038216610bce5760405162461bcd60e51b815260206004820181905260248201527f4552433732313a206d696e7420746f20746865207a65726f2061646472657373604482015260640161046f565b6000818152600260205260409020546001600160a01b031615610c335760405162461bcd60e51b815260206004820152601c60248201527f4552433732313a20746f6b656e20616c7265616479206d696e74656400000000604482015260640161046f565b6001600160a01b0382166000908152600360205260408120805460019290610c5c908490611e86565b909155505060008181526002602052604080822080546001600160a01b0319166001600160a01b03861690811790915590518392907fddf252ad1be2c89b69c2b068fc378daa952ba7f163c4a11628f55a4df523b3ef908290a45050565b600081815260046020526040902080546001600160a01b0319166001600160a01b0384169081179091558190610cef826108b8565b6001600160a01b03167f8c5be1e5ebec7d5bd14f71427d1e84f3dd0314c0f7b2291e5b200ac8c7c3b92560405160405180910390a45050565b6000610d33826108b8565b9050610d40600083610cba565b6001600160a01b0381166000908152600360205260408120805460019290610d69908490611e9e565b909155505060008281526002602052604080822080546001600160a01b0319169055518391906001600160a01b038416907fddf252ad1be2c89b69c2b068fc378daa952ba7f163c4a11628f55a4df523b3ef908390a45050565b610701813361124e565b610dd782826109b6565b6108995760008281526006602090815260408083206001600160a01b03851684529091529020805460ff19166001179055610e0f3390565b6001600160a01b0316816001600160a01b0316837f2f8788117e7eff1d82e926ec794901d17c78024a50270940304540a733656f0d60405160405180910390a45050565b610e5d82826109b6565b156108995760008281526006602090815260408083206001600160a01b0385168085529252808320805460ff1916905551339285917ff6391f5c32d9c69d2a47ea670b442974b53935d1edc7fd64eb21e047a839171b9190a45050565b816001600160a01b0316836001600160a01b031603610f1b5760405162461bcd60e51b815260206004820152601960248201527f4552433732313a20617070726f766520746f2063616c6c657200000000000000604482015260640161046f565b6001600160a01b03838116600081815260056020908152604080832094871680845294825291829020805460ff191686151590811790915591519182527f17307eab39ab6107e8899845ad3d59bd9653f200f220920489ca2b5937696c31910160405180910390a3505050565b6000818152600260205260408120546001600160a01b03166110015760405162461bcd60e51b815260206004820152602c60248201527f4552433732313a206f70657261746f7220717565727920666f72206e6f6e657860448201526b34b9ba32b73a103a37b5b2b760a11b606482015260840161046f565b600061100c836108b8565b9050806001600160a01b0316846001600160a01b0316148061105357506001600160a01b0380821660009081526005602090815260408083209388168352929052205460ff165b806110775750836001600160a01b031661106c8461054c565b6001600160a01b0316145b949350505050565b61108a8484846112b2565b6110968484848461144e565b6104b45760405162461bcd60e51b815260040161046f90611eb5565b606060006110bf8361154f565b6040516020016110cf9190611f07565b60408051601f198184030181528282018252600783526621b4ba34bd32b760c91b602084810191909152825180820184526000808252888152600a9092529281208054929550909161112090611d3d565b80601f016020809104026020016040519081016040528092919081815260200182805461114c90611d3d565b80156111995780601f1061116e57610100808354040283529160200191611199565b820191906000526020600020905b81548152906001019060200180831161117c57829003601f168201915b5050505050905060003090506111d3848387866040516020016111bf9493929190611f38565b604051602081830303815290604052611650565b6040516020016111e39190612022565b60405160208183030381529060405295505050505050919050565b60006001600160e01b031982166380ac58cd60e01b148061122f57506001600160e01b03198216635b5e139f60e01b145b8061041157506301ffc9a760e01b6001600160e01b0319831614610411565b61125882826109b6565b61089957611270816001600160a01b031660146117b5565b61127b8360206117b5565b60405160200161128c929190612067565b60408051601f198184030181529082905262461bcd60e51b825261046f91600401611a9b565b826001600160a01b03166112c5826108b8565b6001600160a01b0316146113295760405162461bcd60e51b815260206004820152602560248201527f4552433732313a207472616e736665722066726f6d20696e636f72726563742060448201526437bbb732b960d91b606482015260840161046f565b6001600160a01b03821661138b5760405162461bcd60e51b8152602060048201526024808201527f4552433732313a207472616e7366657220746f20746865207a65726f206164646044820152637265737360e01b606482015260840161046f565b611396600082610cba565b6001600160a01b03831660009081526003602052604081208054600192906113bf908490611e9e565b90915550506001600160a01b03821660009081526003602052604081208054600192906113ed908490611e86565b909155505060008181526002602052604080822080546001600160a01b0319166001600160a01b0386811691821790925591518493918716917fddf252ad1be2c89b69c2b068fc378daa952ba7f163c4a11628f55a4df523b3ef91a4505050565b60006001600160a01b0384163b1561154457604051630a85bd0160e11b81526001600160a01b0385169063150b7a02906114929033908990889088906004016120dc565b6020604051808303816000875af19250505080156114cd575060408051601f3d908101601f191682019092526114ca91810190612119565b60015b61152a573d8080156114fb576040519150601f19603f3d011682016040523d82523d6000602084013e611500565b606091505b5080516000036115225760405162461bcd60e51b815260040161046f90611eb5565b805181602001fd5b6001600160e01b031916630a85bd0160e11b149050611077565b506001949350505050565b6060816000036115765750506040805180820190915260018152600360fc1b602082015290565b8160005b81156115a0578061158a81611d24565b91506115999050600a8361214c565b915061157a565b60008167ffffffffffffffff8111156115bb576115bb611bf2565b6040519080825280601f01601f1916602001820160405280156115e5576020820181803683370190505b5090505b8415611077576115fa600183611e9e565b9150611607600a86612160565b611612906030611e86565b60f81b81838151811061162757611627612174565b60200101906001600160f81b031916908160001a905350611649600a8661214c565b94506115e9565b6060815160000361166f57505060408051602081019091526000815290565b60006040518060600160405280604081526020016121c1604091399050600060038451600261169e9190611e86565b6116a8919061214c565b6116b390600461218a565b905060006116c2826020611e86565b67ffffffffffffffff8111156116da576116da611bf2565b6040519080825280601f01601f191660200182016040528015611704576020820181803683370190505b509050818152600183018586518101602084015b81831015611770576003830192508251603f8160121c168501518253600182019150603f81600c1c168501518253600182019150603f8160061c168501518253600182019150603f8116850151825350600101611718565b60038951066001811461178a576002811461179b576117a7565b613d3d60f01b6001198301526117a7565b603d60f81b6000198301525b509398975050505050505050565b606060006117c483600261218a565b6117cf906002611e86565b67ffffffffffffffff8111156117e7576117e7611bf2565b6040519080825280601f01601f191660200182016040528015611811576020820181803683370190505b509050600360fc1b8160008151811061182c5761182c612174565b60200101906001600160f81b031916908160001a905350600f60fb1b8160018151811061185b5761185b612174565b60200101906001600160f81b031916908160001a905350600061187f84600261218a565b61188a906001611e86565b90505b6001811115611902576f181899199a1a9b1b9c1cb0b131b232b360811b85600f16601081106118be576118be612174565b1a60f81b8282815181106118d4576118d4612174565b60200101906001600160f81b031916908160001a90535060049490941c936118fb816121a9565b905061188d565b5083156119515760405162461bcd60e51b815260206004820181905260248201527f537472696e67733a20686578206c656e67746820696e73756666696369656e74604482015260640161046f565b9392505050565b6001600160e01b03198116811461070157600080fd5b60006020828403121561198057600080fd5b813561195181611958565b80356001600160a01b03811681146119a257600080fd5b919050565b60008083601f8401126119b957600080fd5b50813567ffffffffffffffff8111156119d157600080fd5b6020830191508360208285010111156119e957600080fd5b9250929050565b600080600060408486031215611a0557600080fd5b611a0e8461198b565b9250602084013567ffffffffffffffff811115611a2a57600080fd5b611a36868287016119a7565b9497909650939450505050565b60005b83811015611a5e578181015183820152602001611a46565b838111156104b45750506000910152565b60008151808452611a87816020860160208601611a43565b601f01601f19169290920160200192915050565b6020815260006119516020830184611a6f565b600060208284031215611ac057600080fd5b5035919050565b60008060408385031215611ada57600080fd5b611ae38361198b565b946020939093013593505050565b600080600060608486031215611b0657600080fd5b611b0f8461198b565b9250611b1d6020850161198b565b9150604084013590509250925092565b60008060208385031215611b4057600080fd5b823567ffffffffffffffff811115611b5757600080fd5b611b63858286016119a7565b90969095509350505050565b60008060408385031215611b8257600080fd5b82359150611b926020840161198b565b90509250929050565b600060208284031215611bad57600080fd5b6119518261198b565b60008060408385031215611bc957600080fd5b611bd28361198b565b915060208301358015158114611be757600080fd5b809150509250929050565b634e487b7160e01b600052604160045260246000fd5b60008060008060808587031215611c1e57600080fd5b611c278561198b565b9350611c356020860161198b565b925060408501359150606085013567ffffffffffffffff80821115611c5957600080fd5b818701915087601f830112611c6d57600080fd5b813581811115611c7f57611c7f611bf2565b604051601f8201601f19908116603f01168101908382118183101715611ca757611ca7611bf2565b816040528281528a6020848701011115611cc057600080fd5b82602086016020830137600060208483010152809550505050505092959194509250565b60008060408385031215611cf757600080fd5b611d008361198b565b9150611b926020840161198b565b634e487b7160e01b600052601160045260246000fd5b600060018201611d3657611d36611d0e565b5060010190565b600181811c90821680611d5157607f821691505b602082108103611d7157634e487b7160e01b600052602260045260246000fd5b50919050565b601f8211156106f157600081815260208120601f850160051c81016020861015611d9e5750805b601f850160051c820191505b81811015611dbd57828155600101611daa565b505050505050565b67ffffffffffffffff831115611ddd57611ddd611bf2565b611df183611deb8354611d3d565b83611d77565b6000601f841160018114611e255760008515611e0d5750838201355b600019600387901b1c1916600186901b178355611e7f565b600083815260209020601f19861690835b82811015611e565786850135825560209485019460019092019101611e36565b5086821015611e735760001960f88860031b161c19848701351681555b505060018560011b0183555b5050505050565b60008219821115611e9957611e99611d0e565b500190565b600082821015611eb057611eb0611d0e565b500390565b60208082526032908201527f4552433732313a207472616e7366657220746f206e6f6e20455243373231526560408201527131b2b4bb32b91034b6b83632b6b2b73a32b960711b606082015260800190565b68436974697a656e202360b81b815260008251611f2b816009850160208701611a43565b9190910160090192915050565b683d913730b6b2911d1160b91b81528451600090611f5d816009850160208a01611a43565b601d60f91b6009918401918201528551611f7e81600a840160208a01611a43565b71111610113232b9b1b934b83a34b7b7111d1160711b600a92909101918201528451611fb181601c840160208901611a43565b6c1116101134b6b0b3b2911d101160991b601c92909101918201527f646174613a696d6167652f7376672b786d6c3b6261736536342c00000000000060298201528351612005816043840160208801611a43565b61227d60f01b604392909101918201526045019695505050505050565b7f646174613a6170706c69636174696f6e2f6a736f6e3b6261736536342c00000081526000825161205a81601d850160208701611a43565b91909101601d0192915050565b7f416363657373436f6e74726f6c3a206163636f756e742000000000000000000081526000835161209f816017850160208801611a43565b7001034b99036b4b9b9b4b733903937b6329607d1b60179184019182015283516120d0816028840160208801611a43565b01602801949350505050565b6001600160a01b038581168252841660208201526040810183905260806060820181905260009061210f90830184611a6f565b9695505050505050565b60006020828403121561212b57600080fd5b815161195181611958565b634e487b7160e01b600052601260045260246000fd5b60008261215b5761215b612136565b500490565b60008261216f5761216f612136565b500690565b634e487b7160e01b600052603260045260246000fd5b60008160001904831182151516156121a4576121a4611d0e565b500290565b6000816121b8576121b8611d0e565b50600019019056fe4142434445464748494a4b4c4d4e4f505152535455565758595a6162636465666768696a6b6c6d6e6f707172737475767778797a303132333435363738392b2fa264697066735822122066d0b881ebfe88b36266770e9b9e2b0e80b66a24188704c620b65271bc8f618864736f6c634300080f0033",
  "devdoc": {
    "kind": "dev",
    "methods": {
      "approve(address,uint256)": {
        "details": "See {IERC721-approve}."
      },
      "balanceOf(address)": {
        "details": "See {IERC721-balanceOf}."
      },
      "getApproved(uint256)": {
        "details": "See {IERC721-getApproved}."
      },
      "getRoleAdmin(bytes32)": {
        "details": "Returns the admin role that controls `role`. See {grantRole} and {revokeRole}. To change a role's admin, use {_setRoleAdmin}."
      },
      "grantRole(bytes32,address)": {
        "details": "Grants `role` to `account`. If `account` had not been already granted `role`, emits a {RoleGranted} event. Requirements: - the caller must have ``role``'s admin role."
      },
      "hasRole(bytes32,address)": {
        "details": "Returns `true` if `account` has been granted `role`."
      },
      "isApprovedForAll(address,address)": {
        "details": "See {IERC721-isApprovedForAll}."
      },
      "name()": {
        "details": "See {IERC721Metadata-name}."
      },
      "ownerOf(uint256)": {
        "details": "See {IERC721-ownerOf}."
      },
      "renounceRole(bytes32,address)": {
        "details": "Revokes `role` from the calling account. Roles are often managed via {grantRole} and {revokeRole}: this function's purpose is to provide a mechanism for accounts to lose their privileges if they are compromised (such as when a trusted device is misplaced). If the calling account had been revoked `role`, emits a {RoleRevoked} event. Requirements: - the caller must be `account`."
      },
      "revokeRole(bytes32,address)": {
        "details": "Revokes `role` from `account`. If `account` had been granted `role`, emits a {RoleRevoked} event. Requirements: - the caller must have ``role``'s admin role."
      },
      "safeTransferFrom(address,address,uint256)": {
        "details": "See {IERC721-safeTransferFrom}."
      },
      "safeTransferFrom(address,address,uint256,bytes)": {
        "details": "See {IERC721-safeTransferFrom}."
      },
      "setApprovalForAll(address,bool)": {
        "details": "See {IERC721-setApprovalForAll}."
      },
      "symbol()": {
        "details": "See {IERC721Metadata-symbol}."
      },
      "tokenURI(uint256)": {
        "details": "The returned value may be a base64 encoded data URI or an API URL."
      },
      "transferFrom(address,address,uint256)": {
        "details": "See {IERC721-transferFrom}."
      }
    },
    "version": 1
  },
  "userdoc": {
    "kind": "user",
    "methods": {
      "tokenURI(uint256)": {
        "notice": "Given a token ID and seed, construct a token URI for an official Nouns DAO noun."
      }
    },
    "version": 1
  },
  "storageLayout": {
    "storage": [
      {
        "astId": 418,
        "contract": "contracts/CitizenV1.sol:CitizenV1",
        "label": "_name",
        "offset": 0,
        "slot": "0",
        "type": "t_string_storage"
      },
      {
        "astId": 420,
        "contract": "contracts/CitizenV1.sol:CitizenV1",
        "label": "_symbol",
        "offset": 0,
        "slot": "1",
        "type": "t_string_storage"
      },
      {
        "astId": 424,
        "contract": "contracts/CitizenV1.sol:CitizenV1",
        "label": "_owners",
        "offset": 0,
        "slot": "2",
        "type": "t_mapping(t_uint256,t_address)"
      },
      {
        "astId": 428,
        "contract": "contracts/CitizenV1.sol:CitizenV1",
        "label": "_balances",
        "offset": 0,
        "slot": "3",
        "type": "t_mapping(t_address,t_uint256)"
      },
      {
        "astId": 432,
        "contract": "contracts/CitizenV1.sol:CitizenV1",
        "label": "_tokenApprovals",
        "offset": 0,
        "slot": "4",
        "type": "t_mapping(t_uint256,t_address)"
      },
      {
        "astId": 438,
        "contract": "contracts/CitizenV1.sol:CitizenV1",
        "label": "_operatorApprovals",
        "offset": 0,
        "slot": "5",
        "type": "t_mapping(t_address,t_mapping(t_address,t_bool))"
      },
      {
        "astId": 24,
        "contract": "contracts/CitizenV1.sol:CitizenV1",
        "label": "_roles",
        "offset": 0,
        "slot": "6",
        "type": "t_mapping(t_bytes32,t_struct(RoleData)19_storage)"
      },
      {
        "astId": 2111,
        "contract": "contracts/CitizenV1.sol:CitizenV1",
        "label": "totalCitizens",
        "offset": 0,
        "slot": "7",
        "type": "t_uint256"
      },
      {
        "astId": 2115,
        "contract": "contracts/CitizenV1.sol:CitizenV1",
        "label": "_isCitizen",
        "offset": 0,
        "slot": "8",
        "type": "t_mapping(t_address,t_bool)"
      },
      {
        "astId": 2119,
        "contract": "contracts/CitizenV1.sol:CitizenV1",
        "label": "_citizenDID",
        "offset": 0,
        "slot": "9",
        "type": "t_mapping(t_address,t_string_storage)"
      },
      {
        "astId": 2123,
        "contract": "contracts/CitizenV1.sol:CitizenV1",
        "label": "_citizenAlias",
        "offset": 0,
        "slot": "10",
        "type": "t_mapping(t_uint256,t_string_storage)"
      }
    ],
    "types": {
      "t_address": {
        "encoding": "inplace",
        "label": "address",
        "numberOfBytes": "20"
      },
      "t_bool": {
        "encoding": "inplace",
        "label": "bool",
        "numberOfBytes": "1"
      },
      "t_bytes32": {
        "encoding": "inplace",
        "label": "bytes32",
        "numberOfBytes": "32"
      },
      "t_mapping(t_address,t_bool)": {
        "encoding": "mapping",
        "key": "t_address",
        "label": "mapping(address => bool)",
        "numberOfBytes": "32",
        "value": "t_bool"
      },
      "t_mapping(t_address,t_mapping(t_address,t_bool))": {
        "encoding": "mapping",
        "key": "t_address",
        "label": "mapping(address => mapping(address => bool))",
        "numberOfBytes": "32",
        "value": "t_mapping(t_address,t_bool)"
      },
      "t_mapping(t_address,t_string_storage)": {
        "encoding": "mapping",
        "key": "t_address",
        "label": "mapping(address => string)",
        "numberOfBytes": "32",
        "value": "t_string_storage"
      },
      "t_mapping(t_address,t_uint256)": {
        "encoding": "mapping",
        "key": "t_address",
        "label": "mapping(address => uint256)",
        "numberOfBytes": "32",
        "value": "t_uint256"
      },
      "t_mapping(t_bytes32,t_struct(RoleData)19_storage)": {
        "encoding": "mapping",
        "key": "t_bytes32",
        "label": "mapping(bytes32 => struct AccessControl.RoleData)",
        "numberOfBytes": "32",
        "value": "t_struct(RoleData)19_storage"
      },
      "t_mapping(t_uint256,t_address)": {
        "encoding": "mapping",
        "key": "t_uint256",
        "label": "mapping(uint256 => address)",
        "numberOfBytes": "32",
        "value": "t_address"
      },
      "t_mapping(t_uint256,t_string_storage)": {
        "encoding": "mapping",
        "key": "t_uint256",
        "label": "mapping(uint256 => string)",
        "numberOfBytes": "32",
        "value": "t_string_storage"
      },
      "t_string_storage": {
        "encoding": "bytes",
        "label": "string",
        "numberOfBytes": "32"
      },
      "t_struct(RoleData)19_storage": {
        "encoding": "inplace",
        "label": "struct AccessControl.RoleData",
        "members": [
          {
            "astId": 16,
            "contract": "contracts/CitizenV1.sol:CitizenV1",
            "label": "members",
            "offset": 0,
            "slot": "0",
            "type": "t_mapping(t_address,t_bool)"
          },
          {
            "astId": 18,
            "contract": "contracts/CitizenV1.sol:CitizenV1",
            "label": "adminRole",
            "offset": 0,
            "slot": "1",
            "type": "t_bytes32"
          }
        ],
        "numberOfBytes": "64"
      },
      "t_uint256": {
        "encoding": "inplace",
        "label": "uint256",
        "numberOfBytes": "32"
      }
    }
  }
}